:100000000C94F5010C942D020C942D020C942D02ED
:100010000C942D020C942D020C942D020C942D02A4
:100020000C942D020C942D020C94F00B0C94FC0FEC
:100030000C94871B0C942D020C942D020C942D0211
:100040000C942D020C942D020C942D020C942D0274
:100050000C942D020C94C90C0C942D020C942D02BE
:100060000C942D020C942D020C942D020C942D0254
:100070000C942D020C942D020C942D020C942D0244
:100080000C942D020C942D020C942D020C942D0234
:100090000C942D020C942D020C942D020C942D0224
:1000A0000C942D020C942D020C942D0205A84CCD1D
:1000B000B2D44EB93836A9020C50B9918688083CA2
:1000C000A6AAAA2ABE000000803F14000400000077
:1000D0001C000B00000014001A0008001500170097
:1000E00000002943E20000001C0018000C00120070
:1000F000130004001600070009000A00E0000000D9
:10010000000028000B000D000E000F0033001D2220
:100110001B000600190005000000E300D2000000EB
:1001200011001000360037003832000000000000D7
:1001300000002A410000D100047F00002C42000092
:100140000000000000001E001F002000210022000F
:10015000000001000100000023002400250026000B
:100160002700010001000100010001000100000062
:10017000000001002D002E00350235003400010082
:100180000100A800A900AA00000001000100000071
:100190002F003000010001003100000000000000CD
:1001A000000001000000010001000000010000004B
:1001B0000000000000001E021F0220022102220295
:1001C0000000010001000000230224022502260293
:1001D00027020100010001000100010001000000F0
:1001E0000000010001000100010001000100010008
:1001F00001000100010001000000010001000000F9
:1002000001000100010001000100000000000000E9
:1002100000000100000001000100000001000000DA
:100220000000000000000100520001000100010078
:1002300000000100057F00003F0040004100420037
:100240004300500051004F00010001000100000078
:1002500000000100450068006900010001003A004B
:100260003B003C003D003E0000000100010000009A
:10027000007F017F037F027F01000000000000007B
:10028000000001000000010001000000010000006A
:1002900000000000000000DA0281FFD9F1DB20A499
:1002A000A62EAF00A0C000A1C800AED580A81FD365
:1002B00000408D14200000AF00AE05010902A1012D
:1002C00085020901A1000509190129081500250168
:1002D0009508750181020501093009311581257FD5
:1002E00095027508810609381581257F95017508E5
:1002F0008106050C0A38021581257F950175088154
:1003000006C0C005010980A101850319012AB700B3
:10031000150126B700950175108100C0050C090173
:10032000A101850419012AA002150126A002950148
:1003300075108100C005010906A101050719E02912
:10034000E715002501950875018102950175088161
:10035000010507190029FF150026FF0095067508FD
:10036000810005081901290595057501910295017E
:1003700075039101C009023B00020100A0FA0904C3
:1003800000000103010100092111010001224000C8
:1003900007058103080001090401000103000000B2
:1003A000092111010001227B0007058203200001C1
:1003B0001201000200000008EDFE00000001010231
:1003C00000010E03560069006D0061006E006100BF
:1003D00000001203700072006F0074006900650075
:1003E0007500730000000403090411241FBECFEF41
:1003F000DAE0DEBFCDBF04B603FE18C08091390538
:1004000090913A05A0913B05B0913C058730904B07
:10041000A740B04B59F41092390510923A0510924A
:100420003B0510923C05E0E0F8E3099511E0A0E0FF
:10043000B1E0EAE3F8E402C005900D92A23BB107F7
:10044000D9F725E0A2EBB1E001C01D92A933B207B4
:10045000E1F70E94AE1B0C9405240C940000E8ED1B
:10046000F0E080818E7F80831092E2001092DA00AB
:100470001092E100A0EEB0E08C9181608C938081BD
:100480008F77808319BCA7EDB0E08C918E7F8C9321
:1004900080818F7E80831092210508952091E40051
:1004A0003091E50095E6A9012091EC00822F817042
:1004B00020FF06C08091E80080FF06C080E008951C
:1004C0002091E80022FD1AC080912F05882389F031
:1004D000853089F08091EB0085FD0FC02091E4000C
:1004E0003091E50042175307F9F29150E1F684E0AC
:1004F000089582E0089583E0089581E00895809151
:10050000310587FF13C08091E80082FF06C080910B
:10051000E8008B778093E80004C080912F0581115B
:10052000F2CF089580912F058823D9F38091E800B8
:1005300080FFF8CF8091E8008E77ECCF982F9093D2
:10054000E900242F762F50E0891731F07091EC00EC
:100550002091ED005091F00021FD07C09F5F973082
:1005600071F78093E90081E008953091EB003E7FC0
:100570003093EB003091ED003D7F3093ED003091F2
:10058000EB0031603093EB007093EC002093ED00B2
:100590005093F0002091EE0027FDE0CF80E0089519
:1005A000B0E0A0E0E6EDF2E00C943621C8EDD0E03A
:1005B00088818F7E8883E7EDF0E080818160808391
:1005C00084E082BF81E08093210588818E7F8883CB
:1005D00002EE10E0F80110821092DA0081EEC82ECF
:1005E000D12CF601108288818F778883888180687A
:1005F000888388818F7D888319BC10922F05109283
:10060000300510922E0510922D0590EEE92EF12C5A
:10061000F70180818B7F808388818160888342E0BD
:1006200060E080E00E949E02F60180818E7F8083E0
:10063000F801808181608083808188608083F701F8
:1006400080818E7F8083888180618883CDB7DEB78B
:10065000E8E00C945221FC01809137059091380517
:1006600086179707A0F06115710529F49091E800AD
:100670009E779093E80090E06115710551F4911117
:1006800008C08091E80082FF34C080E00895BC017A
:10069000F2CF80912F058823C1F18530C1F180917F
:1006A000E80083FD30C08091E80082FDEACF8091B0
:1006B000E80080FFE1CF8091F3002091F200382F15
:1006C0006115710519F02830310558F091E0283096
:1006D000310509F090E02091E8002E772093E800A2
:1006E000CBCF81918093F100615071092F5F3F4F13
:1006F000E7CF80912F05882341F0853041F080912C
:10070000E80083FFBECF81E0089582E0089583E092
:1007100008958091240508952FB7F89460911D05E0
:1007200070911E0580911F05909120052FBF08959F
:100730009C01FC0132969FEF80E04191461751F0F9
:100740009F3F19F4411101C0982F8F5F8630A9F7A0
:100750009F3F09F40895290F311D97FD3A95F9013E
:1007600062830895A3E0B0E0E8EBF3E00C943C2151
:1007700020911A0530911B0528173907A1F0909395
:100780001B0580931A05E0911805F0911905309723
:1007900051F024E029839B838A830680F781E02D32
:1007A000CE01019609952396E2E00C945821A3E02E
:1007B000B0E0EDEDF3E00C943C2120911605309172
:1007C000170528173907A1F0909317058093160590
:1007D000E0911805F0911905309751F023E0298335
:1007E0009B838A830680F781E02DCE0101960995CF
:1007F0002396E2E00C945821E0911805F091190538
:10080000309739F022E0DC012C930480F581E02D53
:1008100009950895E0911805F0911905309729F090
:100820000190F081E02D0995089580E00895DC01A4
:100830006091120580911305962F891301C00895C8
:10084000292F30E0F901EE0FFF1FE65FFA4F4081DC
:1008500051814A175B07A1F487E08A9FA0018B9F13
:10086000500D1124415F5E4F81E0FA01848396139D
:10087000E6CF2F5F3F4F2370332720931205089553
:100880002F5F3F4F922F9370D8CF1092A6041092F3
:10089000A504EFE0F1E08581811102C01482168287
:1008A000379681E0E933F807B1F708952B9A089558
:1008B0002B9808958091790480FD16C081FD16C0A3
:1008C00082FD16C0809178048823A1F0883280F4DC
:1008D00028E0829FC001112468E270E00E94632139
:1008E000862F672B39F0089582E0089584E00895FB
:1008F00088E0089581E008958091790480FD14C016
:1009000081FD14C082FD16C080917704882381F098
:100910008E3180F420E5829FC00111246EE170E0E9
:100920000E946321862F089584E1089588E2089546
:1009300088E0089580E5089580E00895F894E82F10
:10094000E295EF70F0E031A1282F2F7081E090E068
:1009500001C0880F2A95EAF7982F9095932391A3C9
:1009600092A1892B82A37894089590913C0292FFE2
:1009700006C0282F28712830F9F4877F846093FF00
:1009800006C0282F28712831F1F4877E84612091D8
:100990003D0220FF06C0382F38713830D9F4877FE8
:1009A000816021FF06C0282F28712831D1F4877E6D
:1009B000816194FD877E0895282F24712430F9F6F3
:1009C0008B7F8860DCCF282F2471243101F78B7E48
:1009D0008861DDCF382F3171313019F78E7F886013
:1009E000E0CF282F2171213121F78E7E8861E1CF60
:1009F000972F7430B8F46E30A8F4843098F470E017
:100A00002EE0929F600D711D1124FB0198E3899FD8
:100A1000E00DF11D1124EE0FFF1FEA52FF4F8591EB
:100A20009491089580E090E00895CF93DF93EC01D6
:100A300082389105B9F108F041C08133910509F47C
:100A40009FC050F58932910509F48FC08A9709F447
:100A50009EC0C11520E5D20708F0BDC0C11530E425
:100A6000D30708F00AC1C03ED10508F0A5C0CD3CAF
:100A7000D10508F000C1C83AD10508F08FC0C53AC9
:100A8000D10508F0F0C0C130D10539F1209729F126
:100A9000C430D10510F546C08533910509F460C016
:100AA000C997B9F680913C02837009F044C18091E6
:100AB0003D0283FF12C0C9E2D0E00FC0833E910522
:100AC000A1F178F4803E910509F1823E910509F08B
:100AD000C0CF80913C0282FD21C0CE01DF91CF9139
:100AE0000895863E910561F1873E910571F1843E3E
:100AF000910509F0AECF80913D0281FFEECF80914C
:100B00003C02C7EED0E084FD0DC0E7CF80913C02EF
:100B100080FD33C090913D0290FFDFCFC3EED0E067
:100B200084FFDBCFD0E0C0E0D8CF80913C0282FDD3
:100B3000FFC090913D0290FDFEC084FFCECFF2CF6A
:100B400080913C0283FDDDCFC8CF80913C0283FDC4
:100B5000F5C090913D0291FFF0CFC4EED0E0BDCF43
:100B600080913C0285FFB9CFA6CF80913C0285FDE4
:100B7000E8C080913D0283FFB0CFC9E3D0E0ADCFA4
:100B800080913C0286FFA9CFCAE2D0E0A6CF809137
:100B90003C0286FFA2CFC1E3D0E09FCFC13CD1058C
:100BA00008F6C85AD0E0CC0FDD1FC25CDE4F0990BA
:100BB000D881C02DD46491CFC11540E2D40708F08C
:100BC000AAC0C11581E0D80708F087CFC83ED1057B
:100BD00008F483CFA7CFC03622E5D20718F5C0347A
:100BE00032E5D30708F053C0C03242E5D40708F01D
:100BF00047C0C11582E5D80708F47FC02C2F269581
:100C0000269540E2249F900111248C2F8370C1E02F
:100C1000D0E002C0CC0FDD1F8A95E2F7C22BD32BA8
:100C2000DD685BCFC03A22E5D20760F4C03832E518
:100C3000D30708F441C0CF71D0E0DC2FCC27C46FBC
:100C4000D06A4BCFC03C42E5D40708F44AC0C03E4E
:100C500082E5D80708F066CFDC2FCC27CC27DF71E0
:100C6000C06FD06A3ACFC55AD0E0C55CDE4FC881AC
:100C7000D0E0D06432CFD06530CFDF70D06A2DCFD6
:100C8000CF71D0E0DC2FCC27C16FD06A26CF2C2FBC
:100C900026952695277080E2289F900111248C2F9D
:100CA0008370C1E0D0E002C0CC0FDD1F8A95E2F76F
:100CB000C22BD32BDC6811CF2C2F269526952770BD
:100CC00040E2249F900111248C2F8370C1E0D0E07A
:100CD00002C0CC0FDD1F8A95E2F7C22BD32BDA6856
:100CE000FCCE8C2F8F710E94B504C82FD0E0DC2F72
:100CF000CC27CC27DF71D062F0CE8C2F8F710E9471
:100D0000B50435E0D695C7953A95E1F7CF709C2F9D
:100D1000EC01D069E2CE8D2F8F710E94B50490E076
:100D2000982F882788279F719C012C2BE901E3CFFE
:100D3000C2EED0E0D2CEC0EED0E0CFCEC6EED0E054
:100D4000CCCEC5E3D0E0C9CE80912C0281111092A7
:100D50002C02089580959091220598239093220566
:100D60000895809122029091E101981301C00895A5
:100D70008F5F8770FACFB0E0A0E0E1ECF6E00C9472
:100D800035217C0100913A0210913B02809138029A
:100D900090913902082B192BCFE0D0E0CC24C394DA
:100DA000D12CBC2EC6010C2E02C0880F991F0A94AC
:100DB000E2F780239123892B49F4219790F7B12CF6
:100DC0008B2DCDB7DEB7E9E00C945121B7018C2F04
:100DD0000E94F8040E941505019779F3F1CFCF9393
:100DE000DF93EC010E94BB06BE010E94F8040E9442
:100DF0001505DF91CF910895943078F58E3068F520
:100E0000E82FF0E08EE0989FE00DF11D11249E2F59
:100E1000977083E0F695E7958A95E1F7EE0FFF1F4F
:100E2000EE0FFF1FE354FE4F50E040E080E02191C1
:100E300030E0092E02C0369527950A94E2F721701A
:100E40003327042E01C0220F0A94EAF7822B4F5F4A
:100E50005F4F4430510559F7089580E0089594306C
:100E600098F58E3088F5E82FF0E08EE0989FE00D41
:100E7000F11D11248E2F877041E001C0440F8A9527
:100E8000EAF783E0F695E7958A95E1F7EE0FFF1F05
:100E9000EE0FFF1FE354FE4F30E020E070E0519171
:100EA000DF011197CB01022E02C0969587950A9417
:100EB000E2F7817081958527842385278C932F5FA6
:100EC0003F4F2430310559F7089590933B028093AA
:100ED0003A02089521E030E002C0220F331F8A95C4
:100EE000E2F72095309580913A0290913B0282235F
:100EF00093230E946507089590912302809589238A
:100F000080932302282F277091F4282F082E000C9D
:100F1000330B9217130659F090913D0292FF07C0D0
:100F20008595859585950E946A07109223020895FC
:100F300021E030E002C0220F331F8A95E2F7809152
:100F40003A0290913B02822B932B0E9465070895F1
:100F500090933902809338020895FC018381948133
:100F6000892B29F08081918189238F3FF1F480E0E2
:100F700008950E94150592959F70963089F058F457
:100F8000925F9F70923098F7803F19F030F4883E5E
:100F900070F781E008959A5FF4CF843F41F7F9CF6D
:100FA000883EB8F3813F19F7F4CF86819781009787
:100FB00001F7808191810E94EF06DDCFA5E0B0E0CE
:100FC000E4EEF7E00C943B219C01FC0186819781C3
:100FD0000097E1F485E0DE01119601900D928A956B
:100FE000E1F7F901228189819A81222399F0662310
:100FF00089F00E94BB06182F682F89819A810E9470
:101000002F0769817A81812F0E94F8042596E3E0F9
:101010000C9457210E94FC06182FF3CFB0E0A0E0FB
:10102000E4E1F8E00C9436216C017B0164E670E0A9
:1010300088E70E943220EC0197FD12C010E000E02A
:10104000F601E00FF11F849164E670E00E949E209B
:10105000EC01892B29F40F5F1F4F0E151F0581F737
:101060000E941421CE01CDB7DEB7E8E00C945221E6
:101070008091A3049091A404911103C091E0892769
:101080000895882369F062E070E088EB92E00E94A6
:101090000E08892B19F08091A30408951092A304DF
:1010A0008091A304EBCFCF93C091A3048091A404BB
:1010B0008823D1F00E948C03605A75418F4F9F4F57
:1010C00060939F047093A0048093A1049093A20462
:1010D000C11108C062E070E086EB92E00E940E0849
:1010E000892B29F0C091A3048C2FCF91089581E022
:1010F0008093A304F7CF0F931F93CF93DF938B01BC
:10110000EA0190912F05943061F58093E9008FEF0B
:101110009091E800815095FD06C095ED9A95F1F704
:1011200000008111F5CF8091E80085FF1AC00E9470
:101130004E02811111C08091E80085FD06C08091AA
:10114000E8008E778093E800F2CFF80181918F015B
:101150008093F100219779F78091E8008E77809352
:10116000E800DF91CF911F910F91089543E050E087
:10117000BC0182E00E947B08089546E050E0BC017B
:1011800082E00E947B080895CF93DF93EC0148E052
:1011900050E0BC0181E00E947B0888E0FE01A5E2EE
:1011A000B5E001900D928A95E1F7DF91CF91089516
:1011B00081E08093E00080E28093D8001092C90023
:1011C0008FE19EE40197F1F700C0000087E090EB0B
:1011D000DC018093390590933A05A0933B05B093C9
:1011E0003C0588E19CE00FB6F894A89580936000D8
:1011F0000FBE90936000FFCF229A27E030E090E08E
:101200002998AC01022E02C0559547950A94E2F741
:1012100040FF0EC02A9A4AE04A95F1F700C0299A89
:101220002150310968F785E18A95F1F700000895AA
:101230002A98F1CFCF93C1E08D37910550F0CDE0E2
:10124000863D26E0920728F46DE770E00E941821A1
:10125000C62F0E94580489E90E94FC088C2F8061E7
:101260000E94FC080E945604CF91089522982A9863
:1012700098E080E0299825E02A95F1F7000023B155
:1012800022FB222720F9880F822B299A25E02A9514
:10129000F1F70000915071F70895CF93DF930E940A
:1012A000580483E60E94FC080E943609D82F0E9449
:1012B0003609C82F0E9456048D2FD7FD80689C2FB9
:1012C000C7FD9068DF91CF910895ACE0B0E0EBE608
:1012D000F9E00C943A214F8358878B879C87162F0F
:1012E000072F0E944D09811104C0911102C0902F57
:1012F000812F89879A8786E0FE013796DE01119655
:1013000001900D928A95E1F729813A814B815C81A8
:101310006D817E8180E090E02C96E4E00C94562173
:10132000219A229A239A0E9458048AEB0E94FC0870
:101330008AE50E94FC080E9456042FE78FEA92E09B
:10134000215080409040E1F700C000000E944D090C
:10135000089546E050E06EE774E089E994E00E9469
:101360007D21892B21F089E994E00E94FC03909172
:101370009A0486E0E9E9F4E0DF01282F1D922A951E
:10138000E9F790939A04AEE7B4E001900D928A9544
:10139000E1F70895A6E2B0E0E0EDF9E00C942D212C
:1013A0004091990450919A0460919B0470919C041F
:1013B00080919D0490919E040E9465092093990458
:1013C00030939A0440939B0450939C0460939D0433
:1013D00070939E0486E0E9E9F4E0DE01179601903F
:1013E0000D928A95E1F760919B04F62EF19410918D
:1013F0009C041195F9861A8786E0FE013796DE0176
:101400001D9601900D928A95E1F786E0FE013D96CA
:10141000DE01119601900D928A95E1F786E0FE01BA
:101420003196A9E9B4E001900D928A95E1F786E042
:10143000E9E9F4E0DE01599601900D928A95E1F711
:1014400000919D0430909E04E0918A04F0E0EE0F3C
:10145000FF1FE056FE4F6081718190E080E00E94A6
:101460007A2225E33AEF4EE85CE30E9447232B0102
:101470003C016F2DFF0C770B880B990B0E947C228F
:101480004B015C01C301B2010E943F226B017C0150
:10149000612F110F770B880B990B0E947C226F8FA5
:1014A00078A389A39AA3C301B20190580E94B423E0
:1014B0002B013C01A7019601C501B4010E944723FD
:1014C0006BA37CA38DA39EA3A30192016F8D78A132
:1014D00089A19AA10E9447239B01AC016BA17CA129
:1014E0008DA19EA10E94D2210E944422162FA30109
:1014F0009201C501B4010E9447234B015C012F8D6D
:1015000038A149A15AA1C701B6010E9447239B01F6
:10151000AC01C501B4010E94D3210E9444228091F4
:101520008C04882309F489C0212F012E000C330B71
:1015300037FF03C0319521953109862F062E000C07
:10154000990B97FF03C09195819591098217930795
:101550000CF4B9C010E080918B04E0918604F09106
:1015600087041802E00DF11D1124F0938704E09325
:101570008604209184043091850486022019310963
:1015800011243093850420938404A0918904B0E051
:10159000AA0FBB1FAC56BE4FAC91BF010A2E02C0B2
:1015A000759567950A94E2F7862FA9010A2E02C065
:1015B000559547950A94E2F7142F6623E9F0062E15
:1015C000000C770B630D711D37FC7A95603871053F
:1015D0000CF47BC08FE78319380E082E000C990B92
:1015E0000A2E02C0880F991F0A94E2F7E81BF90B34
:1015F000F0938704E093860460E01123F1F0842FD8
:10160000440F990B800F911D07FD9A958038910525
:101610000CF461C01FE7101B010F812F110F990BF4
:1016200002C0880F991FAA95E2F7281B390B309347
:1016300085042093840460E010E01B8F6C8F0D8F75
:101640003E8E86E0FE017996DE01179601900D929E
:101650008A95E1F786E0FE013796DE01119601904A
:101660000D928A95E1F786E0FE013196DE015396F0
:1016700001900D928A95E1F786E0FE017396DE01F6
:10168000179601900D928A95E1F786E0FE01379654
:10169000A9E9B4E001900D928A95E1F786E0E3E9CB
:1016A000F4E0DE01179601900D928A95E1F78091A2
:1016B0009A049885892B80939A040E94A909A6967A
:1016C000E1E10C94492160E046CF61387F4F0CF096
:1016D00083CF81E880CF81389F4F0CF09DCF11E8F8
:1016E0009ACF809122059091A704892B8093B40111
:1016F00090912C02992391F0892B8093B40120E0E2
:1017000086EB91E0FC013191CF0131112F5FF1E0C7
:101710008C3B9F07B9F721110E94A40648E050E0D6
:1017200064E272E084EB91E00E947D21892BA9F0B4
:1017300088E0E4EBF1E0A4E2B2E001900D928A953A
:10174000E1F7E0911805F0911905309731F002802A
:10175000F381E02D84EB91E009950895882321F031
:101760000E94AA060E94710B0895882339F0909177
:101770002205982B909322050E94710B0895909159
:101780003D0292FB222720F9281779F080FB92F97D
:1017900090933D0260913C0270913D0284E090E0A4
:1017A0000E94BC2182E00E947C070895E8E8F4E0F2
:1017B00083E0808384E0818381E082838383148259
:1017C00040815181628173818FE090E00E94B0215D
:1017D00040E050E0BA0183E190E00E94B02108951A
:1017E0001F920F920FB60F9211242F933F934F9396
:1017F0005F936F937F938F939F93AF93BF93EF9379
:10180000FF938091E10082FF09C08091E20082FF96
:1018100005C08091E1008B7F8093E1008091DA0028
:1018200080FF24C08091D80080FF20C08091DA0022
:101830008E7F8093DA008091D90080FF9DC080E187
:1018400089BD82E189BD09B400FEFDCF81E08093AE
:101850002F0580912105811109C00E942F020E944D
:10186000D0028091E20084608093E2008091E100E8
:1018700080FF17C08091E20080FF13C08091E200DA
:101880008E7F8093E2008091E20080618093E2008D
:101890008091D80080628093D80019BC85E0809345
:1018A0002F058091E10084FF2BC08091E20084FF2E
:1018B00027C080E189BD82E189BD89B5982F9170EB
:1018C00080FFFBCF8091D8008F7D8093D8008091DE
:1018D000E1008F7E8093E1008091E2008F7E809313
:1018E000E2008091E20081608093E2008091300507
:1018F000882309F447C084E080932F0580912F0549
:101900008091E10083FF27C08091E20083FF23C024
:101910008091E100877F8093E10082E080932F0532
:10192000109230058091E1008E7F8093E1008091DC
:10193000E2008E7F8093E2008091E20080618093DC
:10194000E20042E060E080E00E949E028091F000B0
:1019500088608093F000FF91EF91BF91AF919F91CC
:101960008F917F916F915F914F913F912F910F9048
:101970000FBE0F901F90189519BC10922F05109252
:10198000210574CF8091E30087FD93E090932F05AC
:10199000B5CF78941F921FB61F9211248F939F93F7
:1019A000AF93BF9380911D0590911E05A0911F05D7
:1019B000B09120050196A11DB11D80931D05909346
:1019C0001E05A0931F05B0932005BF91AF919F9175
:1019D0008F911F901FBE1F9018959C014FB7F894D0
:1019E00080911D0590911E05A0911F05B0912005C5
:1019F0004FBF821B930B08952FB7F89480911D055C
:101A000090911E05A0911F05B09120052FBF08954C
:101A10000E94FC0C9C019091950480919604982B57
:101A200021F030937D0420937C0490919704809161
:101A30009804982B21F030937B0420937A0483E957
:101A400094E00E94FC030895CF93C6E0E6EBF1E03A
:101A5000DF018C2F1D928A95E9F790E080E00E94CB
:101A6000D70390E080E00E94B2031092A7040E9486
:101A7000710BE3E9F4E0DF011D92CA95E9F71092DA
:101A8000770410927804109279040E94080DCF9187
:101A90000895AAE2B0E0EFE4FDE00C943B2181E37D
:101AA00095E02091F100FC012193CF01F5E089330D
:101AB0009F07B9F780913205833009F470C0B8F4FC
:101AC000813009F447C0823009F4B3C08091E80046
:101AD00083FF80C280913105909132059A3008F0E1
:101AE00079C2E92FF0E0E95FFB4D0C9477218A3051
:101AF00009F48EC08B3009F46FC0893039F78091BA
:101B00003105813219F7809135059091360502979C
:101B1000E8F68091E800877F8093E8008091E800F4
:101B200082FF38C09091F3008091F200029731F467
:101B30008091F100813011F0863021F48091F10024
:101B4000809324058091E8008B778093E8000E94C1
:101B50007F02BCCF80913105813A09F0B7CF8091E7
:101B6000E800877F8093E8008091350590913605E5
:101B7000892B61F468E085E295E070E00E942B0318
:101B80008091E8008B778093E800A0CF60E090E040
:101B900080E0F3CF80912F058111C0CF97CF809146
:101BA0003105813A09F092CF809135059091360543
:101BB000892B09F08BCF8091E800877F8093E80024
:101BC0008091E80080FFFCCF80913A018093F10082
:101BD0008091E8008E77B9CF80913105813209F08C
:101BE00075CF8091350590913605892B09F06ECF20
:101BF0008091E800877F8093E8000E947F028091B7
:101C0000330580933A01109222050E94240D5ECF85
:101C100080913105813209F059CF8091E800877FAA
:101C20008093E8000E947F02809134058093230511
:101C30004DCF80913105813A09F048CF8091E8007D
:101C4000877F8093E8008091E80080FFFCCF80913F
:101C50002305BCCF803899F0823809F0BBC1809150
:101C600035058F70873008F0B5C18093E900809109
:101C7000EB0085FB882780F91092E90006C080916F
:101C80002D0590912E05911182609091E800977F2B
:101C90009093E8008093F1001092F1008091E800A9
:101CA0008E7794C1882309F482C1823009F092C1F1
:101CB00080913305811185C1809135058F702FEF9B
:101CC000280F263008F086C18093E9002091EB00B0
:101CD00020FF77C1933031F48091EB0080628093D4
:101CE000EB006FC19091EB0090619093EB0021E0CD
:101CF00030E001C0220F8A95EAF72093EA001092A3
:101D0000EA008091EB008860EACF811163C11091F5
:101D100033051F778091E3008078812B8093E30067
:101D20008091E800877F8093E8000E947F02809185
:101D3000E80080FFFCCF8091E30080688093E3009F
:101D400082E0111183E080932F0544C180588230D6
:101D500008F040C180913305909134058C3D23E01B
:101D60009207A1F583E08A838AE289834FB7F894CA
:101D7000DE01139620E03EE051E2E32FF0E05093C5
:101D80005700E49120FF03C0E295EF703F5FEF70D2
:101D90008E2F90E0EA30C0F0C7968D939D932F5F11
:101DA000243159F74FBF8091E800877F8093E80086
:101DB0006AE270E0CE0101960E942B038091E80058
:101DC0008B778093E80006C1C096E7CF4091350538
:101DD00050913605292F33272330310509F444C0AB
:101DE00078F52130310509F46FC08BE390E0E5E729
:101DF000F3E02230310509F0EDC02091E800277FA3
:101E00002093E80020913705309138058217930719
:101E100008F49C0140E02115310509F064C041112E
:101E200062C08091E80082FDC9CF80912F05882390
:101E300029F2853019F28091E80083FFF2CFBECFFE
:101E400021323105A9F12232310509F0C3C0411513
:101E5000510509F443C04130510509F0BBC08BE77F
:101E600090E0EAEBF2E0C9CF992781309105C1F00B
:101E7000009759F0029709F0ADC0E2ECF3E0E4916D
:101E80008E2F90E0E2ECF3E007C0E6EEF3E0E491A1
:101E90008E2F90E0E6EEF3E0009709F49BC0ADCF03
:101EA000E2EDF3E0E4918E2F90E0E2EDF3E0F4CF89
:101EB0004115510571F04130510509F08BC089E0A1
:101EC00090E0E0EAF3E099CF82E190E0E0EBF3E02C
:101ED00094CF89E090E0E7E8F3E08FCF80E490E0F2
:101EE000E5E3F3E08ACF80912F05882309F466CFDC
:101EF000853009F463CF8091E80083FD5FCF809146
:101F0000E80082FD8ECF8091E80080FF84CF909121
:101F1000F3008091F2002115310519F08830910508
:101F200050F041E0089709F040E08091E8008E779A
:101F30008093E80070CF44914093F1003196215096
:101F400031090196E8CF803809F044C08091E8005B
:101F5000877F8093E800809130058093F1009ECECA
:101F6000811138C0109133051230A0F58091E8003E
:101F7000877F8093E800109330050E947F02112331
:101F800011F084E005C08091E30087FDFACF81E085
:101F900080932F0542E061EC81E00E949E0242E2C4
:101FA00061EC82E00E949E0280912F0513C0809117
:101FB0003305813079F481E0933009F080E080933B
:101FC0002E051092E9008091E800877F8093E80059
:101FD0000E947F028091E80083FF0AC08091E800A0
:101FE000877F8093E8008091EB0080628093EB0014
:101FF000AA96E3E00C9457211F920F920FB60F920E
:1020000011242F933F934F935F936F937F938F93FD
:102010009F93AF93BF93CF93DF93EF93FF93D091B1
:10202000E900DF708091EC00C82FC17080FDC0E82E
:102030001092E9008091F000877F8093F0007894FF
:102040000E94490D1092E9008091F0008860809311
:10205000F000CD2BCF70C093E900FF91EF91DF919D
:10206000CF91BF91AF919F918F917F916F915F9130
:102070004F913F912F910F900FBE0F901F90189589
:10208000109222050E94240D2FEF84E39CE0215042
:1020900080409040E1F700C0000088E19CE00FB66E
:1020A000F894A895809360000FBE90936000FFCFD6
:1020B000662309F472C08D3C41F40E947C04819532
:1020C000809396040E94080D08958E3C19F40E9496
:1020D0007C04F6CF8F3C31F40E947C048195809380
:1020E0009504F0CF803D19F40E947C04F8CF893D1F
:1020F00029F40E945A0480939704E4CF8A3D21F486
:102100000E945A048195F7CF8B3D31F40E945A0406
:10211000819580939804D6CF8C3D19F40E945A047F
:10212000F8CF9FE2980F983020F5282F215D330BD0
:10213000A90121E030E001C0220F4A95EAF7909111
:102140009404922B90939404815D21E030E0A901E6
:1021500002C0440F551F8A95E2F7CA0120919A04E4
:10216000662309F493C0822B80939A040E94A909E4
:1021700008958D3D31F480917904816080937904D4
:10218000A1CF8E3D21F4809179048260F7CF8F3DFD
:1021900019F5809179048460F1CF909195048D3C7C
:1021A00059F42091960427FF0DC0109296049111C6
:1021B0000BC01092770408C08E3CB1F420919604B5
:1021C00012169CF39923B1F09091970420919804F2
:1021D000922B11F410927804482F415D550B483032
:1021E000510508F4B1CF6ECF8F3C39F497FFEACF99
:1021F0001092950490919604DACF803D19F4191647
:10220000BCF3E0CF20919704893D29F41216D4F64F
:1022100010929704D7CF8A3D19F427FFD3CFF8CF78
:10222000209198048B3D29F427FFCCCF109298047D
:10223000C9CF8C3D19F41216CCF3C4CF2FE2280F6E
:10224000283088F4282F215D330BA90121E030E0EC
:1022500001C0220F4A95EAF7209530919404232378
:1022600020939404AFCF209179042E7F8D3D59F0B7
:10227000209179042D7F8E3D31F08F3D09F0A2CF62
:10228000209179042B7F209379049CCF8095822321
:102290006BCF8823D1F19CEF980F913A78F4E6EB5D
:1022A000F1E09191891303C0DF0111971C9291E035
:1022B000EC3BF907B1F70E94710B089590E2980F7B
:1022C000983050F4877091E001C0990F8A95EAF731
:1022D000892F0E94AA06EFCF9BE5980F933028F430
:1022E00090E080E00E94D703089598E5980F993117
:1022F00028F490E080E00E94B203089593E3980FE1
:10230000933118F460E00E9458100895CF93C82FBD
:102310008823B1F08CEF8C0F813A00F5E6EBF1E009
:102320008CEB91E0DF012D91C21761F08A179B07BA
:10233000D1F76C2F84EB91E00E9498030E94710BFF
:10234000CF9108952191C21303C0DF0111971C9210
:102350008E179F07B9F70E94710BEBCF80E28C0FAD
:10236000883068F4C77021E030E001C0220FCA95C0
:10237000EAF780912205822B80932205DFCFEBE5DF
:10238000EC0FE33040F4F0E0E55CFE4F808190E03C
:102390000E94D703D5CFE8E5EC0FE93150F4F0E027
:1023A000EE0FFF1FE25CFE4F808191810E94B2031D
:1023B000C7CF83E38C0F833118F661E08C2F0E9426
:1023C0005810BECFB0E0A0E0E8EEF1E10C9435216A
:1023D0007C01FC0183819481892B31F08081918182
:1023E00089238F3F09F019C3CDB7DEB7E9E00C941C
:1023F0005121C130FFE7DF07C9F1C2302FE7D20713
:1024000009F44EC0C330EFE7DE0709F46CC0C630F4
:102410009FE7D90709F030C3882389F080918B04A6
:10242000819580938B044091880450918904609138
:102430008A0470918B048FE090E00E94B021F70134
:102440008281882309F428C3C3303CE7D30709F409
:10245000BFC008F0A0C0C1159CE7D90709F4A9C006
:10246000C130DC4709F018C30E944010882309F4EA
:1024700003C38091890490E0019666E070E00E94B9
:1024800018218093890440918804509189046091B7
:102490008A0470918B048FE090E00E94B021ECC21E
:1024A0008823B1F080918A0490E0019669E070E0A1
:1024B0000E94182180938A044091880450918904D5
:1024C00060918A0470918B048FE090E00E94B021AB
:1024D000C4303FE7D307F9F480918C0491E0892759
:1024E00080938C04ACCF8823B1F080918A0490E073
:1024F000089669E070E00E94182180938A04409158
:1025000088045091890460918A0470918B048FE053
:1025100090E00E94B021C6312CE7D20709F08FCF9E
:10252000F7018281882319F1809122058A7A91E04E
:1025300009F490E09093BC0169E2811165E384EBBA
:1025400091E00E9498030E94710B80912302877092
:1025500009F44ACFF7018281882309F445CF80919D
:102560003D0282FF41CF82E00E947C073DCF8091F7
:10257000BC0181110EC089E2E6EBF1E09191891373
:1025800003C0DF0111971C9221E0EC3BF207B1F789
:10259000DACF85E3F1CFCB35FCE7DF0751F1CC355E
:1025A0002CE7D207E1F0CA35DC4709F075C281E0BB
:1025B0001DC0109222050E94240D8FEF94E3ECE0E1
:1025C00081509040E040E1F700C000000E94D80830
:1025D0006FEF7FEF90E080E00E94BC2145CF8091BB
:1025E0003D0282FB882780F991E089270E94BF0B7A
:1025F00053C280E0FBCF8281C081D181882369F002
:10260000CE010E94BB06182F682FCE010E942F0713
:10261000BE01812F0E94F80445C2CE010E94FC0633
:10262000182FF6CF0C2F0F70C07F11F00295007F8E
:102630001123B9F0002369F080E28D0F883010F08B
:10264000D11109C080912205082B009322050E9418
:10265000710B8D2F47C08091A704082B0093A7040E
:10266000F6CF8D2F0E9449110023F1F180E28D0FEA
:10267000883010F0D11104C0802F0E94AA0606C035
:1026800000958091A70408230093A7040E94710B72
:102690002BC00C2F0F70C07FC03211F00295007F4D
:1026A000DD2381F0D13009F46FC0112309F479C022
:1026B000DD2009F46FC0F701858180FFCACF8F70DC
:1026C000858368C020913D0222FD37C0112379F136
:1026D000002339F080912205082B009322050E94E7
:1026E000710B80E00E948611EB2DE850FF0B3497B0
:1026F00010F40E940A04CC20A9F08091230280FDEE
:1027000011C0F70112828595859585950E949807DD
:10271000C7010E94E21180912302859585958595D8
:102720000E946A0760E0C7010E94DE075DCE80E07C
:102730000E9449110023C1F29FCF112399F090917B
:102740002C02892F802BD11003C00E94B50BCCCF57
:1027500031E0D312FACF22FFC7CF981729F2809326
:102760002C02C2CFD11006C00E94A406802F0E9466
:10277000AE0BBACF81E0D81609F4B6CF802F0E94F5
:10278000AE0B0E94A406B0CF112331F095E09D1549
:1027900008F4AACF802FD9CFE4E0ED1508F4A4CF38
:1027A000E5CFDD2019F3D93349F4FFEF27EE33E00D
:1027B000F15020403040E1F700C000008D2F0E9412
:1027C000491192CF8C2F86958695837069F0813060
:1027D00009F08ACF8D2F9C2F9370111102C080E0D9
:1027E00090E00E94B20380CF8D2F9C2F9370111127
:1027F00002C080E090E00E94D70376CF612F8D2F3A
:102800000E94581071CF8C2F837009F03FC01111B6
:102810006BCF4D2F429546954770440F440F2D2F97
:102820002F7030E0042E02C0220F331F0A94E2F70B
:1028300090E080E0D4FF09C08FE090E002C0880FF4
:10284000991F4A95E2F780959095C695C695C370F5
:10285000C23099F078F44091380250913902C13079
:1028600039F0822B932B842395230E94A8073CCF19
:10287000242B352B822B932BF8CF822B932B20915B
:1028800038023091390282279327EFCF86951123A2
:1028900011F08C2F8170882309F426CF4D2F42959B
:1028A00046954770440F440F2D2F2F7030E0042EB3
:1028B00002C0220F331F0A94E2F790E080E0D4FFB9
:1028C00009C08FE090E002C0880F991F4A95E2F797
:1028D00080959095C695C695C370C23099F078F4EE
:1028E00040913A0250913B02C13039F0822B932B38
:1028F000842395230E946507F7CE242B352B822B4A
:10290000932BF8CF822B932B20913A0230913B02EC
:1029100082279327EFCFCF70112329F08C2F0E94AD
:1029200098078D2F12CF8D2F0E94AE0B8C2F0E94F7
:102930006A07DACED23F71F160F4D03FB9F0D13FEF
:1029400081F0112309F459C0D11083CE8C2F8F71DF
:1029500025C0D33F31F1D43FA1F780913D0282FDE4
:102960002EC08C2F8F71112311F318C0112369F021
:1029700084E08D1508F4B8CECF7181E090E002C0FC
:10298000880F991FCA95E2F7BFCF95E09D1508F40F
:10299000ABCEF2CF8C2F8F711111C9CF0E94980747
:1029A000A3CE90E080E0112309F4A4CFCF7181E0A1
:1029B00090E002C0880F991FCA95E2F79BCF1123C0
:1029C00089F0CF718C2F0E94980780913D0282FF81
:1029D00007C0E8E0CE9FC0011124836080932302EA
:1029E0008C2FDCCF81E00E947C07F1E0FD1508F020
:1029F0007BCE82E00E947C0777CEDD2059F0D93370
:102A000009F0DCCE2FEF37EE83E0215030408040DC
:102A1000E1F7D2CE8C2F8F718ACF61E0C7010E947F
:102A2000DE07EC01F7018281C115FFE7DF0709F03E
:102A3000E0CC882309F18091880490E0019665E05C
:102A400070E00E941821809388044091880450917E
:102A5000890460918A0470918B048FE090E00E9459
:102A6000B021E0918804F0E0EE0FFF1FEE57FE4F1B
:102A7000808191810E941A09C5308FE7D80709F03B
:102A800027CDF7018281882309F4D9CC80918C0469
:102A900091E0892780938C04F701868197810097C4
:102AA00009F4A9CD0E941505D82FC92FF70112816D
:102AB000D580D2949FE0D922809123028770C1F003
:102AC000C12E1123B1F08C2F807F803421F080E261
:102AD0008D0F883068F080913D0282FF09C082E04E
:102AE0000E947C07809123028770CC24C3948111BB
:102AF000C12CBC2EB2948FE0B822FBE0FB1508F489
:102B0000F3CDEB2DF0E0EF5EFB4D0C947721CF93EE
:102B1000DF938091DE01807F09F049C08091DB0165
:102B2000882309F444C080912202D091E101609190
:102B3000D9017091DA01A091DC01B091DD01C62FBD
:102B4000C723D817A1F190E0109711F0CF3F19F4E7
:102B500001968770F6CF9C0143E0220F331F4A9500
:102B6000E1F7F901EE51FE4F41814713F1CF40816A
:102B70004613EECF42814111EBCF438154814A1B72
:102B80005B0B483C510520F78091DE018F7080611E
:102B90008093DE01F901E951FE4F80818F708061E1
:102BA000808389ED91E00E94E2110E94B106DF91DD
:102BB000CF910895A5E1B0E0E0EEF5E10C94342169
:102BC0008C0185E0F801DE01519601900D928A9505
:102BD000E1F7F801E28069EDA62E61E0B62E609182
:102BE000DC017091DD016115710509F45CC1909102
:102BF000D9014091DA01892F84238F3F09F453C111
:102C000020813181C380D480F090DB01F601E61B86
:102C1000F70BFF2009F411C18091DE01582F507F7E
:102C2000E83CF10508F0C4C0511175C0FE2C4313F7
:102C30001EC092131CC06091DF017091E001F80189
:102C4000468157816417750791F4E11010C08F70A9
:102C500080618093DE01C5010E94E2118091DE0156
:102C6000F80185838F2D6596EAE00C945021C114FC
:102C7000D10429F0822F83238F3F09F02FC180E0F8
:102C8000F82FF170DF2E80FF3CC08091220240912E
:102C9000E101841315C0298B3A8B89899A890E9496
:102CA000EF06292F22952F702230F8F0243020F5DE
:102CB0009F70F9F0F8019581907FD9F4D12C1FC055
:102CC00090E0FC0153E0EE0FFF1F5A95E1F7EE5143
:102CD000FE4F5181351306C05081251303C0528128
:102CE000E5120FC001968770D4CF9F7011F0882332
:102CF00029F3805E883010F3C8010E94E211FD2C98
:102D0000B1CFEE2009F4AECF8091DE0181608093D7
:102D1000DE01F12CA7CF43131BC0921319C04091C1
:102D2000DF015091E001F8012681378142175307F6
:102D300079F4E1100DC08583C8010E94E21188E09A
:102D4000F801A9EDB1E001900D928A95E1F78ACFE3
:102D5000C8010E94AD07882339F1EE2029F1809146
:102D6000DE018032A0F02091D9013091DA013A875A
:102D700029871B86DD86CC868E878091DF01909126
:102D8000E001988B8F87CE0109960E94E21188E0BE
:102D9000F801A9EDB1E001900D928A95E1F70E944A
:102DA0008715FF24F3945ECFC8010E94E211F9CF8A
:102DB00051110AC089ED91E00E94E21188E0F5010D
:102DC00011928A95E9F7A5CF431318C0921316C044
:102DD0004091DF015091E001F801268137814217CF
:102DE000530761F4E1100AC08583C8010E94E21113
:102DF00088E0F50111928A95E9F734CFC8010E9465
:102E0000AD07882389F2EE2079F28091DE018032CD
:102E100008F4BDCF2091D9013091DA013A8329839A
:102E20001B82DD82CC828E838091DF019091E00154
:102E300098878F83CE010196A8CFE83CF105C0F6B4
:102E4000FE2CEE2009F4B0CF43131FC092131DC017
:102E50002091DF013091E001F801868197812817E8
:102E6000390799F49091DE0190FD69CF907F09F4C4
:102E700066CF8091DE018583903F09F45DCF982F66
:102E8000907F905F8F70892B56CFC8010E94AD074D
:102E900081117DCF8091DE0181608093DE01C801C8
:102EA0000E94E211DFCEEE2009F47ECFC8010E941D
:102EB000AD07F82E882309F477CF88E0F801A9ED53
:102EC000B1E001900D928A95E1F78091D90190913E
:102ED000DA010E94EF060E948715C4CE81E08E259C
:102EE000CFCEA0E1B0E0E7E7F7E10C943C212987E1
:102EF0003A874B875C876D877E878F87988BCE015B
:102F000009960E94DA15811112C088E0FE013996F7
:102F1000DE01119601900D928A95E1F78C859D85D1
:102F2000892B29F089859A8589238F3F81F58091A6
:102F300022029091E101891317C06096E2E00C949F
:102F4000582193E0AA0FBB1F9A95E1F7AE51BE4FEF
:102F500098E0FE01319601900D929A95E1F78093E9
:102F6000E1010E94B106E3CFB8E08B9FC0011124BC
:102F70008E519E4F0E94DA158823F9F28091220229
:102F800090E001968770992780932202D0CFA0917C
:102F9000E101B0E0CD0101968770992720912202CE
:102FA0002817190671F6109222050E94240D10921E
:102FB000E1011092220288E0E9EDF1E0DF011D92CB
:102FC0008A95E9F7B4CF0F931F93CF93DF93809146
:102FD000A904E091A804CCE081111AC0DF91CF913F
:102FE0001F910F910895D1E0DE0FD093A8040E2F0A
:102FF00010E0EC9FF0011124E655FB4F8381948192
:10300000892B29F08081918189238F3F51F4ED2F05
:103010008091A904E81738F31092A9041092A8042B
:10302000DDCFC09FD001C19FB00D1124A655BB4F6D
:1030300016968D919C911797892B29F418968D914E
:103040009C91019651F420813181428153816481A8
:103050007581868197810E947117C09FF001C19F81
:10306000F00D1124E655FB4F148213821092A70431
:10307000CECF10921505109214051092390180914F
:103080001305809312050E9445040E94E3170895DA
:10309000B0E0A0E0EEE4F8E10C942C21C091120520
:1030A000E7E0FE2E01E010E0FCE02F2EAEEFEA2E6E
:1030B000809113058C1309C00E94E3170E944504F8
:1030C000CDB7DEB7E2E10C944821D0E0FE01EE0F6F
:1030D000FF1FE65FFA4F80819181F89EF001F99E13
:1030E000F00D1124E15FFE4F2481211159C0309071
:1030F000A904AAEAB4E030E020E0412C5F012315E6
:1031000008F04CC01A966D907C901B97F50180805A
:1031100091804FEF5FEF512CC52CD12CF601EE0FB3
:10312000FF1FE80DF91D659174916616770609F485
:10313000A601672B11F05394EFCF4F3F5407B9F11D
:10314000B80102C0660F771F4A95E2F7462AA80128
:10315000052C02C0440F551F0A94E2F74150510953
:103160004416150601F5229EF001239EF00D112450
:10317000E655FB4FF89ED001F99EB00D1124A15FDA
:10318000BE4F12962D913C91139737832683E08290
:10319000E1829187808771E015967C930E941704E5
:1031A0002196C37085CF14961C921E9213972F5FA1
:1031B0003F4F1C96A4CFA8E0B0E0E1EEF8E10C94FC
:1031C00032218E010F5F1F4F88E0F80111928A951E
:1031D000E9F790E7E92E91E0F92E6801AA24A3947B
:1031E000B12CF70181917F018F3F09F446C0F8941B
:1031F000E82FE295EF70F0E021A18F70A50102C0E9
:10320000440F551F8A95E2F7CA01922F982B91A37C
:1032100092A18095892382A3789400C0E4E7F1E02D
:1032200021E030E0912C812C41914F3F09F467C09F
:10323000A42FA295AF70B0E090968C9190E04F7063
:1032400002C0959587954A95E2F780FD58C0C9015F
:10325000882A992A220F331F51E0E238F50721F717
:10326000F701319780818F3F11F00E949E0480EA20
:103270008A95F1F7F60191828082F2E0CF0ED11C9F
:1032800044E7E41641E0F40609F0ABCF48E050E033
:10329000B80180E392E00E947D21892B99F188E0BA
:1032A000F801A0E3B2E001900D928A95E1F781E088
:1032B00080932F020E94FC0C90932E0280932D028B
:1032C00080912D0290912E020E94ED0C0597F0F056
:1032D00048E050E060E372E080E492E00E947D21EB
:1032E000892BC9F088E0E0E3F2E0A0E4B2E00190CD
:1032F0000D928A95E1F781E010922F0208C090E0CC
:1033000080E0A6CF80912F028111DACF80E028964D
:10331000ECE00C944E2180E0EFCFA9E1B0E0E3E9CE
:10332000F9E10C942C21498B5A8B6B8B7C8B8D8B08
:1033300061111092A7041D861E861F86188A85E0DB
:10334000FE017196DE01199601900D928A95E1F7C2
:103350008C859D85892B31F089859A8589238F3FBE
:1033600009F0C1C129853A854B855C856D857E85CF
:103370008F8598890E947117C4C021E5C2162CE779
:10338000D20629F4882379F00E943918EBCF32E570
:10339000C3163CE7D30639F4882329F0809139011C
:1033A0008111F2CFB0C10FE011E0E12CB12CA12CC2
:1033B00088248394912C9EEF592E44244394F80141
:1033C0006081718166246A94762C20E0422F50E05F
:1033D000FA01EE0FFF1FE60FF71F85919491C816B3
:1033E000D90609F43A01892B11F02F5FEFCFF12CA8
:1033F000FFEF6F167F0609F446C0F8014481F09094
:1034000039018F2D411180E0F82FF170FF2EF80166
:10341000258086819B85992309F4F4C0FF2009F457
:10342000F1C0211015C0A401062C01C0440F0A945C
:10343000EAF7842B86838091A5049091A604883CAA
:10344000910530F448EC50E05093A6044093A50455
:10345000C40102C0880F991F2A95E2F70197F8016D
:1034600026812817190679F4809114059091150585
:10347000009709F44AC00E94ED0C893C910508F4BC
:1034800044C0F8014482EF28FFEFAF1ABF0A095F7A
:103490001F4F26E0A216B10409F091CF8B85882337
:1034A00009F40CC1EE2009F409C10E94FC0C9093B0
:1034B0001505809314058091A904883010F591E0DA
:1034C000980F9093A90498E0FE013996DE011196B9
:1034D00001900D929A95E1F73CE0839FC001112481
:1034E00086559B4F28E0FE013196DC0101900D923C
:1034F0002A95E1F72FEF3FEFFC0131872087D38634
:10350000C2866996E2E10C94482180911205609090
:103510001305982FF0E0E0E0861114C09093120597
:103520000E171F0709F4AFCF90E0FC01EE0FFF1F4D
:10353000E65FFA4FB182A08201968370992780934B
:103540001305A1CF282E312CF101EE0FFF1FE65FEE
:10355000FA4F20813181F7E0F29FD001F39FB00D47
:103560001124A15FBE4F2D913C911197398F288F67
:10357000712C60E070E0E72FF0E0EE0FFF1F288D68
:10358000398DE20FF31F2591349121153105E1F0BA
:10359000F8010190F081E02DFF8BEE8B60E005C01B
:1035A0002417350709F47F2C6F5FE62FF0E0EE0F4C
:1035B000FF1F4E895F89E40FF51F45915491411516
:1035C000510571F77F5FD7CF7720C9F0F8016717F2
:1035D00008F0FD0144820E171F0721F49093120595
:1035E000F72C51CF981305C0AE17BF0711F49F5F9A
:1035F000937091012F5F3F4F822F83708DCFF0E04A
:10360000E0E0F7CF90E0211020C0B40102C0660FC7
:10361000771F2A95E2F79B012150310928173907B6
:1036200031F4442309F448C0C5010E941704C401C1
:10363000062C01C0880F0A94EAF7982F9095F8019C
:10364000868189238683F22C1ECF9C01062C02C022
:10365000359527950A94E2F7A90141705527BC01D9
:103660006150710986239723892B11F5452B01F1B0
:10367000F80182819381892BC1F01B821C821D82FB
:103680001E8259825A820E94FC0C8160582F9D83B1
:103690008C83F801828193818F83988729813A8175
:1036A0004B816D817E810E947117F8011582BFCF19
:1036B000F22FF1702F2EBBCF2F2CB9CF9091120586
:1036C00080911305981731F00E944818EE2009F4F4
:1036D00049CE17CF0E94E3171092150510921405DA
:1036E0000E944504F3CF61E0CE0109960E94DE07F7
:1036F0006C018B85F0E5CF16FCE7DF0609F03DCEC7
:10370000882309F450CE81E0809339012BCE1F929B
:103710001FB61F9211248F939F93AF93BF938091F5
:103720001C05811113C080911D0590911E05A0916B
:103730001F05B09120054196A11DB11D80931D0567
:1037400090931E05A0931F05B0932005BF91AF91E4
:103750009F918F911F901FBE1F901895CDB7DEB718
:1037600062970FB6F894DEBF0FBECDBF85B78068F5
:1037700085BF85B7806885BF84B7877F84BF0FB654
:10378000F894A89580916000886180936000109201
:1037900060000FBE80E890E00FB6F894809361005F
:1037A000909361000FBE8CE994E09093B3018093F5
:1037B000B2010E942F020E94D0028091E200846038
:1037C0008093E200789480912F058823A1F01091D6
:1037D000E9001F709091EC00892F817090FD80E8C6
:1037E000182B1092E9008091E80083FD0E94490D9A
:1037F0001F701093E90082E084BD93E095BD9AEFBD
:1038000097BD80936E0084EF0E949E0485EF0E9416
:103810009E0486EF0E949E0487EF0E949E0404E7A8
:1038200011E082E8E82E81E0F82ED8018D918D011B
:103830008F3F11F00E949E04E016F106B1F788E078
:10384000E0E4F2E0DF01282F1D922A95E9F7E0E39A
:10385000F2E0DF011D928A95E9F78FE090E00E9487
:103860009221609388047093890480938A049093D2
:103870008B04663010F00E94D60B90E080E00E942E
:103880009821873E9E4F09F452C067EE7EEF90E08C
:1038900080E00E94BC2160E082E090E00E949E21D6
:1038A00060E083E090E00E949E2110923902109225
:1038B000380260E074E184E090E00E94BC2160E0A6
:1038C00086E090E00E949E216FEF87E090E00E94EA
:1038D0009E2140E050E0BA0188E090E00E94B021D3
:1038E00060E08DE090E00E949E2140E050E0BA014F
:1038F00088E190E00E94B02160E087E190E00E94C2
:103900009E2140E050E0BA018CE190E00E94B0219D
:1039100070E060E080E290E00E94BC2140E050E076
:10392000BA0188E190E00E94B0210E94D60B82E0AB
:1039300090E00E948A218093480284E090E00E94F7
:10394000982190933D0280933C020E94DB18EFE3A4
:10395000FCE93197F1F700C000000E94DB1880916C
:10396000400280FF08C06FEF7FEF90E080E00E9490
:10397000BC210E94D80883E090E00E948A2190E058
:103980000E94A80782E08093720480E8809351022D
:103990000E942C206DE070E089EA92E00E940E08FF
:1039A000892BC9F58091720463E070E081FDA9C0A4
:1039B00086EA92E00E940E08892B69F56DE070E0BE
:1039C00086E992E00E940E08892B29F50E948C035B
:1039D000605A75418F4F9F4F60939F047093A0046E
:1039E0008093A1049093A204E2E7F2E080E092E0E9
:1039F000DF019C011D9221503040E1F78FEF9FEFD6
:103A0000909375048093740481E08093A404809360
:103A1000A304109273040E949009E0918804F0E0DE
:103A2000EE0FFF1FEE57FE4F808191810E941A0911
:103A300080E091E09093190580931805B8E12B2E52
:103A4000312C80912F0500E112E1853009F498C0F6
:103A50000E94DB1879E4872E72E0972EE0E4AE2E08
:103A6000E2E0BE2ED501F401219131918D919D911D
:103A700041E552E04E175F0709F48EC02817390759
:103A800099F3712CD5010D911D915D01F401C19047
:103A9000D1904F01C016D10659F1C026D126612C14
:103AA000EE24E394F12CC6018E219F21892BB1F0E5
:103AB0006C867D8621E0C8018E219F21892B09F427
:103AC00020E02E870E94FC0C8160782F988B8F87D6
:103AD0004C855D856E8588890E948D196394EE0CF6
:103AE000FF1CFEE06F12DFCFF401329711830083D9
:103AF000739424E07212C6CF0E948C03DD24D39409
:103B00006EC083EA92E056CF80912F05843031F168
:103B10000E9438080E94CA0910921C0530E40FB6B2
:103B2000F894A895209260000FBE3093600083B790
:103B3000817F846083BF83B7816083BF78948895D9
:103B400083B78E7F83BF0FB6F894A89580916000ED
:103B5000886180936000109260000FBE80912E05F6
:103B6000882371F00E94DB18E0E4F2E081919191EA
:103B7000892B09F04FC248E452E04E175F07B1F7B6
:103B800080912F05853009F4BFCF109222050E9445
:103B9000240D0E940A045CCF2817390709F071CF61
:103BA0000E94FC0C8C0180913E0290913F0208170C
:103BB0001907A1F08FEF8F83888719860E94FC0C6C
:103BC0008160782F9B878A874F81588569858B858F
:103BD0000E948D1910933F0200933E02D12C8091D8
:103BE0003901882301F18091140590911505009702
:103BF000D1F00E94ED0C2091A5043091A604281765
:103C0000390788F49091120580911305981709F4EB
:103C100010C10E9448181092A6041092A504109298
:103C20001505109214058091A404882301F1809158
:103C3000740490917504892B09F004C18091A30448
:103C40008823A9F00E948C0300919F041091A00486
:103C50002091A1043091A204601B710B820B930B85
:103C60006F3F7F4F8F4F9F4710F40E943808D1104D
:103C70000E94530886E0E3E9F4E0DE01119601902A
:103C80000D928A95E1F71092950410929604109285
:103C90009704109298048B819C81892B09F44AC067
:103CA00080917C0490917D040E94ED0C9C01909188
:103CB0007704992309F4CBC125313105D8F19F3F11
:103CC00019F09F5F909377041B81112359F00E9494
:103CD0007C049FEF11160CF491E0899F802D112434
:103CE000809395041C81112359F00E947C049FEF5E
:103CF00011160CF491E0899F802D11248093960475
:103D0000309195043323B1F020919604222391F051
:103D100045EB3403C0011124992309F46BC190933E
:103D2000950455EB250390011124332309F466C152
:103D3000309396048D819E81892B09F44AC080912D
:103D40007A0490917B040E94ED0C9C019091780480
:103D5000992309F477C121353105D8F19F3F19F036
:103D60009F5F909378041D81112359F00E945A049B
:103D70009FEF11160CF491E0899F802D1124809300
:103D800097041E81112359F00E945A049FEF1116C7
:103D90000CF491E0899F802D112480939804309138
:103DA00097043323B1F020919804222391F045EB3E
:103DB0003403C0011124992309F424C1909397047A
:103DC00055EB250390011124332309F41FC13093CF
:103DD000980446E050E0BE016F5F7F4F83E994E0B6
:103DE0000E947D21892B61F4809195049091960425
:103DF000892B90919704892B90919804892B11F02D
:103E00000E94080D86E0FE013196A3E9B4E001901E
:103E10000D928A95E1F70E94CA090E940A049091C6
:103E20007604891709F40DCE809376040E948C03E2
:103E300008CE0E94E31710921505109214050E94F7
:103E40004504F1CE809173048111F8CE0E9453088D
:103E500020917404309175042115310509F4EECEDA
:103E600080E041E050E0082F10E07A01082E02C007
:103E7000EE0CFF1C0A94E2F7B70162237323672B51
:103E800011F48F5FF0CF9091720490FF9AC0880F69
:103E9000880F880F80930A0110920D01895F80932B
:103EA0000B0183E080930E0124E630E047E050E010
:103EB00068E071E088E70E94CC20892B09F0BECE33
:103EC000A80195E0440F551F9A95E1F7809172047F
:103ED00080FF89C0E2E5F2E080E2DF011D928A9571
:103EE000E9F7E0E9F1E0FA8BE98B0CE811E087E013
:103EF000982E88248394A989BA892D91BA8BA98B8D
:103F0000F80141908F01440E552E511CC2018E586C
:103F10009D4F2C01E22FF0E0EE5AFD4F30E020E003
:103F2000692C621AC82C022E01C0CC0C0A94EAF744
:103F3000520190E0D5018D915D018C21662D691BA8
:103F40006770762E062E000C770BB82F01C0BB0FC2
:103F50007A94EAF77B2E71956195710967707727DE
:103F600001C086956A95EAF7782A8081782A70825E
:103F70009F5F9830F9F62F5F3F4F3196283031051B
:103F800079F6E989FA89E459F14009F0B4CF04E6F9
:103F900010E020E230E042E552E060E488E70E9471
:103FA000ED20892B09F04ACEE094F09480917404BE
:103FB00090917504E822F922F0927504E09274045D
:103FC0003DCE8295880F807680930A0198013695C0
:103FD00027953695279520930D01815E80930B01DF
:103FE00010920E0161CF4E585D4F04E610E020E2C2
:103FF00030E0D3CF81E08093950493CE81E080932D
:10400000960498CE81E080939704DACE81E0809385
:104010009804DFCE09BD19BD09B400FEFDCF809123
:10402000D8008F7D8093D8008091E00082608093DB
:10403000E0008091E00081FDFCCF109222050E94FB
:10404000240D9ECD2B30310508F08ACEC2CE2B3008
:10405000310508F036CE6ECE1092B9008CE0809318
:10406000B8000895B0E0A0E0E8E3F0E20C9433215A
:10407000B82EEB010E94FC0C6C01EE24E394F12CB1
:10408000C431D10560F025E0E22EF12CCF3FDC07F2
:1040900031F0CE0164E170E00E9418217B0184EAD6
:1040A000A82E94E8992E1092BC00A092BC000E9409
:1040B000FC0C8C018091BC0087FF0DC08091B90081
:1040C000887F8830F9F08091B900887F8031D1F005
:1040D0000FEF1FEF08C0C8010E94ED0CE816F906AB
:1040E00048F70EEF1FEFCF3FDC07E9F2C6010E9451
:1040F000ED0CC817D907B8F6C801CDB7DEB7EBE0AD
:104100000C944F21B092BB009092BC000E94FC0C1A
:104110008C018091BC0087FF0AC08091B900887F24
:10412000883111F08034A1F610E000E0E5CFC8013D
:104130000E94ED0CE816F90660F7D3CF0F931F939A
:10414000CF93DF93EB018093BB0084E88093BC00A6
:104150000E94FC0C8C018091BC0087FF11C0209153
:10416000B900287F81E090E0283211F490E080E0EF
:10417000919581959109DF91CF911F910F910895AC
:10418000CF3FDC0741F3C8010E94ED0CC817D907E7
:1041900010F78EEF9FEFEFCFB0E0A0E0E2EDF0E29E
:1041A0000C9436216B018A017901B9010E943220F9
:1041B000E6010C0D1D1DC017D10711F097FF08C0B7
:1041C00024E92093BC00CDB7DEB7E8E00C9452217F
:1041D000B70189910E949E20EECFB0E0A0E0E3EF0E
:1041E000F0E20C943621C62F6A017901B8010E94D1
:1041F000322097FD0CC0B8018C2F0E949E20E60152
:10420000EC0CFD1CCE15DF0511F097FF08C024E96A
:104210002093BC00CDB7DEB7E8E00C945221B80182
:1042200089910E949E20EECF84E98093BC0008957E
:10423000AA1BBB1B51E107C0AA1FBB1FA617B707CC
:1042400010F0A61BB70B881F991F5A95A9F78095E8
:104250009095BC01CD0108952F923F924F925F92AD
:104260006F927F928F929F92AF92BF92CF92DF9286
:10427000EF92FF920F931F93CF93DF93CDB7DEB7EB
:10428000CA1BDB0B0FB6F894DEBF0FBECDBF09947F
:104290002A88398848885F846E847D848C849B84D6
:1042A000AA84B984C884DF80EE80FD800C811B81E4
:1042B000AA81B981CE0FD11D0FB6F894DEBF0FBE13
:1042C000CDBFED01089597FB072E16F4009407D09B
:1042D00077FD09D00E94182107FC05D03EF4909587
:1042E00081959F4F0895709561957F4F0895EE0FCA
:1042F000FF1F0590F491E02D0994FB01DC0104C03F
:104300008D910190801921F441505040C8F7881BCD
:10431000990B0895F999FECF92BD81BDF89A99271E
:1043200080B50895A6E1B0E044E050E00C94C421CB
:10433000A8E1B0E042E050E00C94C421262FF999A6
:10434000FECF92BD81BDF89A019700B4021639F0F4
:104350001FBA20BD0FB6F894FA9AF99A0FBE0895C5
:104360000396272F0E949F210E949E21252F0E94A5
:104370009F21242F0C949F210196272F0E949F217B
:104380000C949E21DC01CB01FC01F999FECF06C003
:10439000F2BDE1BDF89A319600B40D924150504003
:1043A000B8F708955058BB27AA270E94EA210C9419
:1043B000F9220E94C02238F00E94C72220F039F46E
:1043C0009F3F19F426F40C94BD220EF4E095E7FB10
:1043D0000C94B722E92F0E941E2358F3BA176207E4
:1043E00073078407950720F079F4A6F50C94402311
:1043F0000EF4E0950B2EBA2FA02D0B01B901900100
:104400000C01CA01A0011124FF27591B99F0593F43
:1044100050F4503E68F11A16F040A22F232F342F8B
:104420004427585FF3CF469537952795A795F040D9
:104430005395C9F77EF41F16BA0B620B730B840BEE
:10444000BAF09150A1F0FF0FBB1F661F771F881FA6
:10445000C2F70EC0BA0F621F731F841F48F48795FE
:1044600077956795B795F7959E3F08F0B0CF9395F0
:10447000880F08F09927EE0F9795879508950E9469
:10448000D022E3950C940A230E944B226894B11128
:104490000C94412308950E94262388F09F5798F09A
:1044A000B92F9927B751B0F0E1F0660F771F881F39
:1044B000991F1AF0BA95C9F714C0B13091F00E9453
:1044C0004023B1E008950C944023672F782F88276C
:1044D000B85F39F0B93FCCF3869577956795B3957A
:1044E000D9F73EF490958095709561957F4F8F4FE9
:1044F0009F4F0895E89409C097FB3EF490958095EE
:10450000709561957F4F8F4F9F4F9923A9F0F92F99
:1045100096E9BB279395F695879577956795B79517
:10452000F111F8CFFAF4BB0F11F460FF1BC06F5FFD
:104530007F4F8F4F9F4F16C0882311F096E911C00F
:10454000772321F09EE8872F762F05C0662371F030
:1045500096E8862F70E060E02AF09A95660F771F44
:10456000881FDAF7880F9695879597F9089597F938
:104570009F6780E870E060E008959FEF80EC089509
:1045800000240A9416161706180609060895002432
:104590000A94121613061406050608950C94BD22FB
:1045A0000E942623D8F3E894E0E0BB279F57F0F061
:1045B0002AED3FE049EC06C0EE0FBB0F661F771FE8
:1045C000881F28F0B23A62077307840728F0B25AAE
:1045D000620B730B840BE3959A9572F7803830F475
:1045E0009A95BB0F661F771F881FD2F790480C94CF
:1045F000BE23092E0394000C11F4882352F0BB0F44
:1046000040F4BF2B11F460FF04C06F5F7F4F8F4FEA
:104610009F4F0895EF93E0FF07C0A2EA2AED3FE025
:1046200049EC5FEB0E94EA210E94F9220F9003946B
:1046300001FC9058ECEAF0E00C94CA2357FD905826
:10464000440F551F59F05F3F71F04795880F97FB56
:10465000991F61F09F3F79F0879508951216130610
:104660001406551FF2CF4695F1DF08C0161617063F
:104670001806991FF1CF8695710561050894089574
:10468000E894BB2766277727CB0197F908950E9406
:104690005A230C94F9220E94C02238F00E94C722AB
:1046A00020F0952311F00C94B7220C94BD22112414
:1046B0000C9441230E941E2370F3959FC1F3950F24
:1046C00050E0551F629FF001729FBB27F00DB11D96
:1046D000639FAA27F00DB11DAA1F649F6627B00D26
:1046E000A11D661F829F2227B00DA11D621F739F0F
:1046F000B00DA11D621F839FA00D611D221F749F1D
:104700003327A00D611D231F849F600D211D822F63
:10471000762F6A2F11249F5750409AF0F1F088238A
:104720004AF0EE0FFF1FBB1F661F771F881F9150B7
:104730005040A9F79E3F510580F00C94B7220C948D
:1047400041235F3FE4F3983ED4F3869577956795D0
:10475000B795F795E7959F5FC1F7FE2B880F911DE1
:104760009695879597F908959F930E94D0220F9070
:1047700007FCEE5F0C940A239F3F31F0915020F428
:10478000879577956795B795880F911D969587952D
:1047900097F908959F938F937F936F93FF93EF9370
:1047A0009B01AC010E944723EF91FF910E94DE2301
:1047B0002F913F914F915F910C944723DF93CF93BB
:1047C0001F930F93FF92EF92DF927B018C0168940D
:1047D00006C0DA2EEF010E945A23FE01E894A5914B
:1047E0002591359145915591A6F3EF010E94EA215B
:1047F000FE019701A801DA9469F7DF90EF90FF902E
:104800000F911F91CF91DF910895F894FFCF2A0E59
:10481000520EEA0F520EEA0F850EA60EEA0FA30FF4
:10482000B00F1213121349134913E213FE1374133A
:0A483000741303148B149A149A14E5
:10483A008903C408BD08B6080021007F220003D0FE
:10484A00004C00000000CA002B000000000000001D
:10485A00000000000000000000000000000000004E
:10486A000000000000000000000101818283E200D4
:10487A00E900EA00B500B600B700CD008301CC001C
:10488A008A019201940121022302240225022602AE
:10489A0027022A02B300B4006F0070009F01CB0107
:1048AA00F4F5F6F736F0F16795373534C69766941E
:1048BA009293FA00F401EE02E803E20400081018E9
:1048CA001810080001000200030004000500060099
:1048DA00C4FFD3FFE2FFF1FF00000F001E002D000E
:0248EA003C0090
:00000001FF
